{
    "contractName": "ComEth",
    "abi": [
        {
            "inputs": [
                {
                    "internalType": "address",
                    "name": "comEthOwner_",
                    "type": "address"
                }
            ],
            "stateMutability": "nonpayable",
            "type": "constructor"
        },
        {
            "inputs": [],
            "name": "ban",
            "outputs": [],
            "stateMutability": "nonpayable",
            "type": "function"
        },
        {
            "inputs": [
                {
                    "internalType": "address",
                    "name": "userAddress",
                    "type": "address"
                }
            ],
            "name": "getIsBanned",
            "outputs": [
                {
                    "internalType": "bool",
                    "name": "",
                    "type": "bool"
                }
            ],
            "stateMutability": "view",
            "type": "function"
        },
        {
            "inputs": [],
            "name": "proceedPaiement",
            "outputs": [],
            "stateMutability": "payable",
            "type": "function"
        },
        {
            "inputs": [
                {
                    "internalType": "uint256",
                    "name": "",
                    "type": "uint256"
                }
            ],
            "name": "selectVote",
            "outputs": [
                {
                    "internalType": "string",
                    "name": "",
                    "type": "string"
                }
            ],
            "stateMutability": "view",
            "type": "function"
        },
        {
            "inputs": [],
            "name": "submitProposal",
            "outputs": [],
            "stateMutability": "nonpayable",
            "type": "function"
        },
        {
            "inputs": [],
            "name": "vote",
            "outputs": [],
            "stateMutability": "nonpayable",
            "type": "function"
        },
        {
            "stateMutability": "payable",
            "type": "receive"
        }
    ],
    "bytecode": "608060405234801561001057600080fd5b5060405161034a38038061034a83398101604081905261002f91610054565b600380546001600160a01b0319166001600160a01b0392909216919091179055610084565b60006020828403121561006657600080fd5b81516001600160a01b038116811461007d57600080fd5b9392505050565b6102b7806100936000396000f3fe6080604052600436106100595760003560e01c8063632a9a5214610065578063c188390214610065578063d5d9ce9114610065578063d65a0ba914610074578063f4d53a05146100aa578063f5f4c037146100fa57600080fd5b3661006057005b600080fd5b34801561007157600080fd5b50005b34801561008057600080fd5b5061009461008f3660046101d8565b6100fc565b6040516100a191906101f1565b60405180910390f35b3480156100b657600080fd5b506100ea6100c53660046101a8565b6001600160a01b0316600090815260046020526040902054600160a01b900460ff1690565b60405190151581526020016100a1565b005b6000818154811061010c57600080fd5b90600052602060002001600091509050805461012790610246565b80601f016020809104026020016040519081016040528092919081815260200182805461015390610246565b80156101a05780601f10610175576101008083540402835291602001916101a0565b820191906000526020600020905b81548152906001019060200180831161018357829003601f168201915b505050505081565b6000602082840312156101ba57600080fd5b81356001600160a01b03811681146101d157600080fd5b9392505050565b6000602082840312156101ea57600080fd5b5035919050565b600060208083528351808285015260005b8181101561021e57858101830151858201604001528201610202565b81811115610230576000604083870101525b50601f01601f1916929092016040019392505050565b600181811c9082168061025a57607f821691505b6020821081141561027b57634e487b7160e01b600052602260045260246000fd5b5091905056fea26469706673582212203f0296a9fe31af037b63e997d59d48d5616b3fb77737d3359f8fbaf7284a13ce64736f6c63430008070033",
    "sourcePath": "/home/enima/dev/ComEth/contracts/ComEth.sol",
    "compiler": {
        "name": "solc",
        "version": "0.8.7+commit.e28d00a7"
    },
    "functionHashes": {
        "ban()": "d5d9ce91",
        "getIsBanned(address)": "f4d53a05",
        "proceedPaiement()": "f5f4c037",
        "selectVote(uint256)": "d65a0ba9",
        "submitProposal()": "c1883902",
        "vote()": "632a9a52"
    },
    "gasEstimates": {
        "creation": {
            "codeDepositCost": "139000",
            "executionCost": "infinite",
            "totalCost": "infinite"
        },
        "external": {
            "ban()": "145",
            "getIsBanned(address)": "2597",
            "proceedPaiement()": "184",
            "selectVote(uint256)": "infinite",
            "submitProposal()": "123",
            "vote()": "101"
        },
        "internal": {
            "_toggleIsActive(address)": "infinite"
        }
    }
}