{
    "contractName": "ComEth",
    "abi": [
        {
            "inputs": [
                {
                    "internalType": "address",
                    "name": "comEthOwner_",
                    "type": "address"
                }
            ],
            "stateMutability": "nonpayable",
            "type": "constructor"
        },
        {
            "anonymous": false,
            "inputs": [
                {
                    "indexed": true,
                    "internalType": "address",
                    "name": "sender",
                    "type": "address"
                },
                {
                    "indexed": false,
                    "internalType": "uint256",
                    "name": "amount",
                    "type": "uint256"
                }
            ],
            "name": "Deposited",
            "type": "event"
        },
        {
            "anonymous": false,
            "inputs": [
                {
                    "indexed": false,
                    "internalType": "address",
                    "name": "user",
                    "type": "address"
                },
                {
                    "indexed": false,
                    "internalType": "uint256",
                    "name": "timestamp",
                    "type": "uint256"
                },
                {
                    "indexed": false,
                    "internalType": "bool",
                    "name": "status",
                    "type": "bool"
                }
            ],
            "name": "IsBanned",
            "type": "event"
        },
        {
            "anonymous": false,
            "inputs": [
                {
                    "components": [
                        {
                            "internalType": "string[]",
                            "name": "voteOptions",
                            "type": "string[]"
                        },
                        {
                            "internalType": "uint256[]",
                            "name": "voteCount",
                            "type": "uint256[]"
                        },
                        {
                            "internalType": "enum ComEth.StatusVote",
                            "name": "statusVote",
                            "type": "uint8"
                        },
                        {
                            "internalType": "uint256",
                            "name": "createdAt",
                            "type": "uint256"
                        },
                        {
                            "internalType": "address",
                            "name": "author",
                            "type": "address"
                        },
                        {
                            "internalType": "string",
                            "name": "proposition",
                            "type": "string"
                        },
                        {
                            "internalType": "address",
                            "name": "paiementReceiver",
                            "type": "address"
                        },
                        {
                            "internalType": "uint256",
                            "name": "paiementAmount",
                            "type": "uint256"
                        }
                    ],
                    "indexed": false,
                    "internalType": "struct ComEth.Proposal",
                    "name": "proposal",
                    "type": "tuple"
                }
            ],
            "name": "ProposalCreated",
            "type": "event"
        },
        {
            "anonymous": false,
            "inputs": [
                {
                    "indexed": true,
                    "internalType": "bytes32",
                    "name": "role",
                    "type": "bytes32"
                },
                {
                    "indexed": true,
                    "internalType": "bytes32",
                    "name": "previousAdminRole",
                    "type": "bytes32"
                },
                {
                    "indexed": true,
                    "internalType": "bytes32",
                    "name": "newAdminRole",
                    "type": "bytes32"
                }
            ],
            "name": "RoleAdminChanged",
            "type": "event"
        },
        {
            "anonymous": false,
            "inputs": [
                {
                    "indexed": true,
                    "internalType": "bytes32",
                    "name": "role",
                    "type": "bytes32"
                },
                {
                    "indexed": true,
                    "internalType": "address",
                    "name": "account",
                    "type": "address"
                },
                {
                    "indexed": true,
                    "internalType": "address",
                    "name": "sender",
                    "type": "address"
                }
            ],
            "name": "RoleGranted",
            "type": "event"
        },
        {
            "anonymous": false,
            "inputs": [
                {
                    "indexed": true,
                    "internalType": "bytes32",
                    "name": "role",
                    "type": "bytes32"
                },
                {
                    "indexed": true,
                    "internalType": "address",
                    "name": "account",
                    "type": "address"
                },
                {
                    "indexed": true,
                    "internalType": "address",
                    "name": "sender",
                    "type": "address"
                }
            ],
            "name": "RoleRevoked",
            "type": "event"
        },
        {
            "anonymous": false,
            "inputs": [
                {
                    "indexed": false,
                    "internalType": "address",
                    "name": "paymentReceiver",
                    "type": "address"
                },
                {
                    "indexed": false,
                    "internalType": "uint256",
                    "name": "amount",
                    "type": "uint256"
                },
                {
                    "indexed": false,
                    "internalType": "uint256",
                    "name": "proposalId",
                    "type": "uint256"
                }
            ],
            "name": "Spent",
            "type": "event"
        },
        {
            "anonymous": false,
            "inputs": [
                {
                    "indexed": true,
                    "internalType": "address",
                    "name": "newUser",
                    "type": "address"
                },
                {
                    "indexed": false,
                    "internalType": "uint256",
                    "name": "timestamp",
                    "type": "uint256"
                }
            ],
            "name": "UserAdded",
            "type": "event"
        },
        {
            "anonymous": false,
            "inputs": [
                {
                    "indexed": true,
                    "internalType": "address",
                    "name": "voter",
                    "type": "address"
                },
                {
                    "indexed": false,
                    "internalType": "uint256",
                    "name": "proposalId",
                    "type": "uint256"
                },
                {
                    "indexed": false,
                    "internalType": "string",
                    "name": "proposalDescription",
                    "type": "string"
                }
            ],
            "name": "Voted",
            "type": "event"
        },
        {
            "inputs": [],
            "name": "ADMIN_ROLE",
            "outputs": [
                {
                    "internalType": "bytes32",
                    "name": "",
                    "type": "bytes32"
                }
            ],
            "stateMutability": "view",
            "type": "function"
        },
        {
            "inputs": [],
            "name": "DEFAULT_ADMIN_ROLE",
            "outputs": [
                {
                    "internalType": "bytes32",
                    "name": "",
                    "type": "bytes32"
                }
            ],
            "stateMutability": "view",
            "type": "function"
        },
        {
            "inputs": [
                {
                    "internalType": "address",
                    "name": "userAddress_",
                    "type": "address"
                }
            ],
            "name": "addUser",
            "outputs": [],
            "stateMutability": "nonpayable",
            "type": "function"
        },
        {
            "inputs": [],
            "name": "getBalance",
            "outputs": [
                {
                    "internalType": "uint256",
                    "name": "",
                    "type": "uint256"
                }
            ],
            "stateMutability": "view",
            "type": "function"
        },
        {
            "inputs": [
                {
                    "internalType": "address",
                    "name": "userAddress_",
                    "type": "address"
                }
            ],
            "name": "getInvestmentBalance",
            "outputs": [
                {
                    "internalType": "uint256",
                    "name": "",
                    "type": "uint256"
                }
            ],
            "stateMutability": "view",
            "type": "function"
        },
        {
            "inputs": [
                {
                    "internalType": "address",
                    "name": "userAddress_",
                    "type": "address"
                }
            ],
            "name": "getIsBanned",
            "outputs": [
                {
                    "internalType": "bool",
                    "name": "",
                    "type": "bool"
                }
            ],
            "stateMutability": "view",
            "type": "function"
        },
        {
            "inputs": [],
            "name": "getProposalsList",
            "outputs": [
                {
                    "components": [
                        {
                            "internalType": "string[]",
                            "name": "voteOptions",
                            "type": "string[]"
                        },
                        {
                            "internalType": "uint256[]",
                            "name": "voteCount",
                            "type": "uint256[]"
                        },
                        {
                            "internalType": "enum ComEth.StatusVote",
                            "name": "statusVote",
                            "type": "uint8"
                        },
                        {
                            "internalType": "uint256",
                            "name": "createdAt",
                            "type": "uint256"
                        },
                        {
                            "internalType": "address",
                            "name": "author",
                            "type": "address"
                        },
                        {
                            "internalType": "string",
                            "name": "proposition",
                            "type": "string"
                        },
                        {
                            "internalType": "address",
                            "name": "paiementReceiver",
                            "type": "address"
                        },
                        {
                            "internalType": "uint256",
                            "name": "paiementAmount",
                            "type": "uint256"
                        }
                    ],
                    "internalType": "struct ComEth.Proposal[]",
                    "name": "",
                    "type": "tuple[]"
                }
            ],
            "stateMutability": "view",
            "type": "function"
        },
        {
            "inputs": [
                {
                    "internalType": "bytes32",
                    "name": "role",
                    "type": "bytes32"
                }
            ],
            "name": "getRoleAdmin",
            "outputs": [
                {
                    "internalType": "bytes32",
                    "name": "",
                    "type": "bytes32"
                }
            ],
            "stateMutability": "view",
            "type": "function"
        },
        {
            "inputs": [
                {
                    "internalType": "bytes32",
                    "name": "role",
                    "type": "bytes32"
                },
                {
                    "internalType": "address",
                    "name": "account",
                    "type": "address"
                }
            ],
            "name": "grantRole",
            "outputs": [],
            "stateMutability": "nonpayable",
            "type": "function"
        },
        {
            "inputs": [
                {
                    "internalType": "bytes32",
                    "name": "role",
                    "type": "bytes32"
                },
                {
                    "internalType": "address",
                    "name": "account",
                    "type": "address"
                }
            ],
            "name": "hasRole",
            "outputs": [
                {
                    "internalType": "bool",
                    "name": "",
                    "type": "bool"
                }
            ],
            "stateMutability": "view",
            "type": "function"
        },
        {
            "inputs": [],
            "name": "pay",
            "outputs": [],
            "stateMutability": "payable",
            "type": "function"
        },
        {
            "inputs": [
                {
                    "internalType": "uint256",
                    "name": "id_",
                    "type": "uint256"
                }
            ],
            "name": "proposalById",
            "outputs": [
                {
                    "components": [
                        {
                            "internalType": "string[]",
                            "name": "voteOptions",
                            "type": "string[]"
                        },
                        {
                            "internalType": "uint256[]",
                            "name": "voteCount",
                            "type": "uint256[]"
                        },
                        {
                            "internalType": "enum ComEth.StatusVote",
                            "name": "statusVote",
                            "type": "uint8"
                        },
                        {
                            "internalType": "uint256",
                            "name": "createdAt",
                            "type": "uint256"
                        },
                        {
                            "internalType": "address",
                            "name": "author",
                            "type": "address"
                        },
                        {
                            "internalType": "string",
                            "name": "proposition",
                            "type": "string"
                        },
                        {
                            "internalType": "address",
                            "name": "paiementReceiver",
                            "type": "address"
                        },
                        {
                            "internalType": "uint256",
                            "name": "paiementAmount",
                            "type": "uint256"
                        }
                    ],
                    "internalType": "struct ComEth.Proposal",
                    "name": "",
                    "type": "tuple"
                }
            ],
            "stateMutability": "view",
            "type": "function"
        },
        {
            "inputs": [
                {
                    "internalType": "bytes32",
                    "name": "role",
                    "type": "bytes32"
                },
                {
                    "internalType": "address",
                    "name": "account",
                    "type": "address"
                }
            ],
            "name": "renounceRole",
            "outputs": [],
            "stateMutability": "nonpayable",
            "type": "function"
        },
        {
            "inputs": [
                {
                    "internalType": "bytes32",
                    "name": "role",
                    "type": "bytes32"
                },
                {
                    "internalType": "address",
                    "name": "account",
                    "type": "address"
                }
            ],
            "name": "revokeRole",
            "outputs": [],
            "stateMutability": "nonpayable",
            "type": "function"
        },
        {
            "inputs": [
                {
                    "internalType": "string[]",
                    "name": "voteOptions_",
                    "type": "string[]"
                },
                {
                    "internalType": "string",
                    "name": "proposition_",
                    "type": "string"
                },
                {
                    "internalType": "uint256",
                    "name": "timeLimit_",
                    "type": "uint256"
                },
                {
                    "internalType": "address",
                    "name": "paiementReceiver_",
                    "type": "address"
                },
                {
                    "internalType": "uint256",
                    "name": "paiementAmount_",
                    "type": "uint256"
                }
            ],
            "name": "submitProposal",
            "outputs": [
                {
                    "internalType": "uint256",
                    "name": "",
                    "type": "uint256"
                }
            ],
            "stateMutability": "nonpayable",
            "type": "function"
        },
        {
            "inputs": [
                {
                    "internalType": "bytes4",
                    "name": "interfaceId",
                    "type": "bytes4"
                }
            ],
            "name": "supportsInterface",
            "outputs": [
                {
                    "internalType": "bool",
                    "name": "",
                    "type": "bool"
                }
            ],
            "stateMutability": "view",
            "type": "function"
        },
        {
            "inputs": [
                {
                    "internalType": "address",
                    "name": "userAddress_",
                    "type": "address"
                }
            ],
            "name": "toggleIsBanned",
            "outputs": [
                {
                    "internalType": "bool",
                    "name": "",
                    "type": "bool"
                }
            ],
            "stateMutability": "nonpayable",
            "type": "function"
        },
        {
            "inputs": [
                {
                    "internalType": "uint256",
                    "name": "id_",
                    "type": "uint256"
                },
                {
                    "internalType": "uint256",
                    "name": "userChoice_",
                    "type": "uint256"
                }
            ],
            "name": "vote",
            "outputs": [],
            "stateMutability": "nonpayable",
            "type": "function"
        },
        {
            "stateMutability": "payable",
            "type": "receive"
        }
    ],
    "bytecode": "60806040523480156200001157600080fd5b506040516200236b3803806200236b833981016040819052620000349162000136565b600180546001600160a01b0319166001600160a01b0383169081179091556200007f907fa49807205ce4d355092ef5a8a18f56e8913cf4a201fbe287825b095693c217759062000086565b5062000168565b62000092828262000096565b5050565b6000828152602081815260408083206001600160a01b038516845290915290205460ff1662000092576000828152602081815260408083206001600160a01b03851684529091529020805460ff19166001179055620000f23390565b6001600160a01b0316816001600160a01b0316837f2f8788117e7eff1d82e926ec794901d17c78024a50270940304540a733656f0d60405160405180910390a45050565b6000602082840312156200014957600080fd5b81516001600160a01b03811681146200016157600080fd5b9392505050565b6121f380620001786000396000f3fe60806040526004361061010d5760003560e01c8063497f4c5611610095578063a217fddf11610064578063a217fddf14610306578063b384abef1461031b578063d547741f1461033b578063f4d53a051461035b578063fc86ac841461039b57600080fd5b8063497f4c5614610270578063578178c01461029057806375b238fc146102b257806391d14854146102e657600080fd5b8063248a9ca3116100dc578063248a9ca3146101aa5780632f2ff15d146101da57806335469eac146101fa57806336568abe14610230578063421b2d8b1461025057600080fd5b806301ffc9a71461012357806302f9612b1461015857806312065fe0146101855780631b9265b8146101a257600080fd5b3661011e5761011c33346103bb565b005b600080fd5b34801561012f57600080fd5b5061014361013e366004611b7b565b61042b565b60405190151581526020015b60405180910390f35b34801561016457600080fd5b50610178610173366004611b36565b610462565b60405161014f9190611f68565b34801561019157600080fd5b50475b60405190815260200161014f565b61011c6106f4565b3480156101b657600080fd5b506101946101c5366004611b36565b60009081526020819052604090206001015490565b3480156101e657600080fd5b5061011c6101f5366004611b4f565b610702565b34801561020657600080fd5b50610194610215366004611a11565b6001600160a01b031660009081526006602052604090205490565b34801561023c57600080fd5b5061011c61024b366004611b4f565b61072d565b34801561025c57600080fd5b5061011c61026b366004611a11565b6107b0565b34801561027c57600080fd5b5061014361028b366004611a11565b610910565b34801561029c57600080fd5b506102a56109aa565b60405161014f9190611ef3565b3480156102be57600080fd5b506101947fa49807205ce4d355092ef5a8a18f56e8913cf4a201fbe287825b095693c2177581565b3480156102f257600080fd5b50610143610301366004611b4f565b610c43565b34801561031257600080fd5b50610194600081565b34801561032757600080fd5b5061011c610336366004611ba5565b610c6c565b34801561034757600080fd5b5061011c610356366004611b4f565b610f1d565b34801561036757600080fd5b50610143610376366004611a11565b6001600160a01b0316600090815260076020526040902054600160a01b900460ff1690565b3480156103a757600080fd5b506101946103b6366004611a2c565b610f43565b6001600160a01b038216600090815260066020526040812080548392906103e390849061208a565b90915550506040518181526001600160a01b038316907f2da466a7b24304f47e87fa2e1e5a81b9831ce54fec19055ce277ca2f39ba42c4906020015b60405180910390a25050565b60006001600160e01b03198216637965db0b60e01b148061045c57506301ffc9a760e01b6001600160e01b03198316145b92915050565b6104a760408051610100810182526060808252602082015290810160008152600060208201819052604082018190526060808301526080820181905260a09091015290565b600082815260086020908152604080832081518154610120948102820185019093526101008101838152909491938593919285929185015b8282101561058b5783829060005260206000200180546104fe9061212a565b80601f016020809104026020016040519081016040528092919081815260200182805461052a9061212a565b80156105775780601f1061054c57610100808354040283529160200191610577565b820191906000526020600020905b81548152906001019060200180831161055a57829003601f168201915b5050505050815260200190600101906104df565b505050508152602001600182018054806020026020016040519081016040528092919081815260200182805480156105e257602002820191906000526020600020905b8154815260200190600101908083116105ce575b5050509183525050600282015460209091019060ff1660038111156106095761060961217b565b600381111561061a5761061a61217b565b81526003820154602082015260048201546001600160a01b0316604082015260058201805460609092019161064e9061212a565b80601f016020809104026020016040519081016040528092919081815260200182805461067a9061212a565b80156106c75780601f1061069c576101008083540402835291602001916106c7565b820191906000526020600020905b8154815290600101906020018083116106aa57829003601f168201915b505050918352505060068201546001600160a01b0316602082015260079091015460409091015292915050565b346106ff33826103bb565b50565b60008281526020819052604090206001015461071e8133611252565b61072883836112b6565b505050565b6001600160a01b03811633146107a25760405162461bcd60e51b815260206004820152602f60248201527f416363657373436f6e74726f6c3a2063616e206f6e6c792072656e6f756e636560448201526e103937b632b9903337b91039b2b63360891b60648201526084015b60405180910390fd5b6107ac828261133a565b5050565b604080516080810182526001600160a01b038381168083526000602080850182815285870183815260016060880181815286865260078552898620985189549451935191519089166001600160a81b031995861617600160a01b94151585021761ffff60a81b19908116600160a81b931515840260ff60b01b1990811691909117600160b01b9315158402178c556002805495860181559098528a547f405787fa12a823e0f2b7631cc41b3ba8828b3321ca811111fa75cd3aa3bb5ace909401805494909a166001600160a01b0319851681178b558b549490961690951760ff938590048416151590940293909317808955895460ff60a81b1982169083900484161515909202918217895598549890931692909416919091179581900490921615159091029390931790915591514281527f25ddd06f7eaeb83bb3fbcaa231d4b89e2d7bcd781043983661920061e755a7f0910160405180910390a250565b6001600160a01b0381166000818152600760209081526040808320805460ff60a01b19169081905581519485524292850192909252600160a01b90910460ff161515838201525190917fc238bc8069d0f3541054828a4ff40c3980d8996f566bd2096dab735a78980265919081900360600190a1506001600160a01b0316600090815260076020526040902054600160a01b900460ff1690565b60606004805480602002602001604051908101604052809291908181526020016000905b82821015610c3a57838290600052602060002090600802016040518061010001604052908160008201805480602002602001604051908101604052809291908181526020016000905b82821015610ac3578382906000526020600020018054610a369061212a565b80601f0160208091040260200160405190810160405280929190818152602001828054610a629061212a565b8015610aaf5780601f10610a8457610100808354040283529160200191610aaf565b820191906000526020600020905b815481529060010190602001808311610a9257829003601f168201915b505050505081526020019060010190610a17565b50505050815260200160018201805480602002602001604051908101604052809291908181526020018280548015610b1a57602002820191906000526020600020905b815481526020019060010190808311610b06575b5050509183525050600282015460209091019060ff166003811115610b4157610b4161217b565b6003811115610b5257610b5261217b565b81526003820154602082015260048201546001600160a01b03166040820152600582018054606090920191610b869061212a565b80601f0160208091040260200160405190810160405280929190818152602001828054610bb29061212a565b8015610bff5780601f10610bd457610100808354040283529160200191610bff565b820191906000526020600020905b815481529060010190602001808311610be257829003601f168201915b505050918352505060068201546001600160a01b031660208083019190915260079092015460409091015290825260019290920191016109ce565b50505050905090565b6000918252602082815260408084206001600160a01b0393909316845291905290205460ff1690565b33600090815260096020908152604080832085845290915290205460ff1615610ccf5760405162461bcd60e51b815260206004820152601560248201527410dbdb515d1a0e88105b1c9958591e481d9bdd1959605a1b6044820152606401610799565b600160008381526008602052604090206002015460ff166003811115610cf757610cf761217b565b14610d445760405162461bcd60e51b815260206004820152601e60248201527f436f6d4574683a204e6f7420612072756e6e696e672070726f706f73616c00006044820152606401610799565b6000828152600a6020908152604080832054600890925290912060030154610d6c919061208a565b421115610e025760028054610d8191906120a2565b6000838152600860205260409020600101805483908110610da457610da4612191565b90600052602060002001541115610de15760008281526008602052604090206002908101805460ff19169091179055610ddc8261139f565b610ecd565b6000828152600860205260409020600201805460ff19166003179055610ecd565b3360009081526009602090815260408083208584528252808320805460ff1916600190811790915560089092529091208101805483908110610e4657610e46612191565b906000526020600020016000828254610e5f919061208a565b909155505060028054610e7291906120a2565b6000838152600860205260409020600101805483908110610e9557610e95612191565b90600052602060002001541115610ecd5760008281526008602052604090206002908101805460ff19169091179055610ecd8261139f565b336001600160a01b03167f497ac9c2d8b6e7ea7204365157d9642f36d2b6125352bfa6d0a73328142d0bd9836008600086815260200190815260200160002060050160405161041f929190612038565b600082815260208190526040902060010154610f398133611252565b610728838361133a565b6000610f53600580546001019055565b6000610f5e60055490565b9050604051806101000160405280888152602001885167ffffffffffffffff811115610f8c57610f8c6121a7565b604051908082528060200260200182016040528015610fb5578160200160208202803683370190505b50815260200160018152602001428152602001336001600160a01b03168152602001878152602001856001600160a01b031681526020018481525060086000838152602001908152602001600020600082015181600001908051906020019061101f9291906116f2565b506020828101518051611038926001850192019061174f565b50604082015160028201805460ff1916600183600381111561105c5761105c61217b565b02179055506060820151600382015560808201516004820180546001600160a01b0319166001600160a01b0390921691909117905560a082015180516110ac916005840191602090910190611796565b5060c08201516006820180546001600160a01b039092166001600160a01b031990921691909117905560e0909101516007909101556000818152600a602090815260408083208890556008918290528220600480546001810182559352805490929091027f8a35acfbc15ff81a39ae7d344fd709f28e8600b4aa8c65c6b64bfe7fe36bd19b01906111409082908490611809565b5060018281018054611155928401919061185f565b50600282810154908201805460ff9092169160ff1916600183600381111561117f5761117f61217b565b02179055506003828101549082015560048083015490820180546001600160a01b0319166001600160a01b0390921691909117905560058083018054918301916111c89061212a565b6111d392919061189f565b5060068281015490820180546001600160a01b0319166001600160a01b039092169190911790556007918201549101556000818152600860205260409081902090517fc71c54bc1498c0b515d075798eab7953f16e903f699d11a206f7a147ba45995e9161124091611f7b565b60405180910390a19695505050505050565b61125c8282610c43565b6107ac57611274816001600160a01b03166014611436565b61127f836020611436565b604051602001611290929190611e7e565b60408051601f198184030181529082905262461bcd60e51b825261079991600401611f55565b6112c08282610c43565b6107ac576000828152602081815260408083206001600160a01b03851684529091529020805460ff191660011790556112f63390565b6001600160a01b0316816001600160a01b0316837f2f8788117e7eff1d82e926ec794901d17c78024a50270940304540a733656f0d60405160405180910390a45050565b6113448282610c43565b156107ac576000828152602081815260408083206001600160a01b0385168085529252808320805460ff1916905551339285917ff6391f5c32d9c69d2a47ea670b442974b53935d1edc7fd64eb21e047a839171b9190a45050565b600081815260086020526040902060078101546006909101546113cd916001600160a01b03909116906115d9565b600081815260086020908152604091829020600681015460079091015483516001600160a01b039092168252918101919091529081018290527f535148561d77998b1c55b0df8e3a745c169a3c2d06073ca7cf45743224cef85d9060600160405180910390a150565b606060006114458360026120c4565b61145090600261208a565b67ffffffffffffffff811115611468576114686121a7565b6040519080825280601f01601f191660200182016040528015611492576020820181803683370190505b509050600360fc1b816000815181106114ad576114ad612191565b60200101906001600160f81b031916908160001a905350600f60fb1b816001815181106114dc576114dc612191565b60200101906001600160f81b031916908160001a90535060006115008460026120c4565b61150b90600161208a565b90505b6001811115611583576f181899199a1a9b1b9c1cb0b131b232b360811b85600f166010811061153f5761153f612191565b1a60f81b82828151811061155557611555612191565b60200101906001600160f81b031916908160001a90535060049490941c9361157c81612113565b905061150e565b5083156115d25760405162461bcd60e51b815260206004820181905260248201527f537472696e67733a20686578206c656e67746820696e73756666696369656e746044820152606401610799565b9392505050565b804710156116295760405162461bcd60e51b815260206004820152601d60248201527f416464726573733a20696e73756666696369656e742062616c616e63650000006044820152606401610799565b6000826001600160a01b03168260405160006040518083038185875af1925050503d8060008114611676576040519150601f19603f3d011682016040523d82523d6000602084013e61167b565b606091505b50509050806107285760405162461bcd60e51b815260206004820152603a60248201527f416464726573733a20756e61626c6520746f2073656e642076616c75652c207260448201527f6563697069656e74206d617920686176652072657665727465640000000000006064820152608401610799565b82805482825590600052602060002090810192821561173f579160200282015b8281111561173f578251805161172f918491602090910190611796565b5091602001919060010190611712565b5061174b929150611919565b5090565b82805482825590600052602060002090810192821561178a579160200282015b8281111561178a57825182559160200191906001019061176f565b5061174b929150611936565b8280546117a29061212a565b90600052602060002090601f0160209004810192826117c4576000855561178a565b82601f106117dd57805160ff191683800117855561178a565b8280016001018555821561178a579182018281111561178a57825182559160200191906001019061176f565b82805482825590600052602060002090810192821561173f5760005260206000209182015b8281111561173f5782829080546118449061212a565b61184f92919061189f565b509160010191906001019061182e565b82805482825590600052602060002090810192821561178a5760005260206000209182015b8281111561178a578254825591600101919060010190611884565b8280546118ab9061212a565b90600052602060002090601f0160209004810192826118cd576000855561178a565b82601f106118de578054855561178a565b8280016001018555821561178a57600052602060002091601f016020900482018281111561178a578254825591600101919060010190611884565b8082111561174b57600061192d828261194b565b50600101611919565b5b8082111561174b5760008155600101611937565b5080546119579061212a565b6000825580601f10611967575050565b601f0160209004906000526020600020908101906106ff9190611936565b80356001600160a01b038116811461199c57600080fd5b919050565b600082601f8301126119b257600080fd5b813567ffffffffffffffff8111156119cc576119cc6121a7565b6119df601f8201601f1916602001612059565b8181528460208386010111156119f457600080fd5b816020850160208301376000918101602001919091529392505050565b600060208284031215611a2357600080fd5b6115d282611985565b600080600080600060a08688031215611a4457600080fd5b67ffffffffffffffff8087351115611a5b57600080fd5b8635870188601f820112611a6e57600080fd5b8035602083821115611a8257611a826121a7565b8160051b611a91828201612059565b8381528281019085840183870185018f1015611aac57600080fd5b600093505b85841015611aea578781351115611ac757600080fd5b611ad68f8683358a01016119a1565b835260019390930192918401918401611ab1565b509a50505089013591505081811115611b0257600080fd5b611b0e89828a016119a1565b9550505060408601359250611b2560608701611985565b949793965091946080013592915050565b600060208284031215611b4857600080fd5b5035919050565b60008060408385031215611b6257600080fd5b82359150611b7260208401611985565b90509250929050565b600060208284031215611b8d57600080fd5b81356001600160e01b0319811681146115d257600080fd5b60008060408385031215611bb857600080fd5b50508035926020909101359150565b600082825480855260208086019550808260051b840101856000528160002060005b84811015611c1657858303601f19018952611c048383611ce1565b98840198925060019182019101611be9565b5090979650505050505050565b600081518084526020808501945080840160005b83811015611c5357815187529582019590820190600101611c37565b509495945050505050565b6000815480845260208085019450836000528060002060005b83811015611c5357815487529582019560019182019101611c77565b60048110611cb157634e487b7160e01b600052602160045260246000fd5b9052565b60008151808452611ccd8160208601602086016120e3565b601f01601f19169290920160200192915050565b8054600090600181811c9080831680611cfb57607f831692505b6020808410821415611d1d57634e487b7160e01b600052602260045260246000fd5b838852818015611d345760018114611d4857611d76565b60ff19861689830152604089019650611d76565b876000528160002060005b86811015611d6e5781548b8201850152908501908301611d53565b8a0183019750505b50505050505092915050565b8051610100808452815190840181905260009161012080860192600581901b87019091019160209081019190855b82811015611ddf5761011f19898603018652611dcd858551611cb5565b95820195945092810192600101611db0565b5080870151945087840381890152505050611dfa8183611c23565b9150506040830151611e0f6040860182611c93565b50606083015160608501526080830151611e3460808601826001600160a01b03169052565b5060a083015184820360a0860152611e4c8282611cb5565b91505060c0830151611e6960c08601826001600160a01b03169052565b5060e083015160e08501528091505092915050565b7f416363657373436f6e74726f6c3a206163636f756e7420000000000000000000815260008351611eb68160178501602088016120e3565b7001034b99036b4b9b9b4b733903937b6329607d1b6017918401918201528351611ee78160288401602088016120e3565b01602801949350505050565b6000602080830181845280855180835260408601915060408160051b870101925083870160005b82811015611f4857603f19888603018452611f36858351611d82565b94509285019290850190600101611f1a565b5092979650505050505050565b6020815260006115d26020830184611cb5565b6020815260006115d26020830184611d82565b602081526000610100806020840152611f98610120840185611bc7565b601f1980858303016040860152611fb28260018801611c5e565b9150611fc2600287015460ff1690565b611fcf6060870182611c93565b506003860154608086015260048601546001600160a01b031660a08601528482030160c08501526120038160058701611ce1565b905061201960068601546001600160a01b031690565b6001600160a01b031660e0850152600794909401549201919091525090565b8281526040602082015260006120516040830184611ce1565b949350505050565b604051601f8201601f1916810167ffffffffffffffff81118282101715612082576120826121a7565b604052919050565b6000821982111561209d5761209d612165565b500190565b6000826120bf57634e487b7160e01b600052601260045260246000fd5b500490565b60008160001904831182151516156120de576120de612165565b500290565b60005b838110156120fe5781810151838201526020016120e6565b8381111561210d576000848401525b50505050565b60008161212257612122612165565b506000190190565b600181811c9082168061213e57607f821691505b6020821081141561215f57634e487b7160e01b600052602260045260246000fd5b50919050565b634e487b7160e01b600052601160045260246000fd5b634e487b7160e01b600052602160045260246000fd5b634e487b7160e01b600052603260045260246000fd5b634e487b7160e01b600052604160045260246000fdfea26469706673582212207c8f7329ad23c2fa56fa205f2783241f79e3bb16ef099817e28a27e37ad2695664736f6c63430008070033",
    "sourcePath": "/home/enima/dev/ComEth/contracts/ComEth.sol",
    "compiler": {
        "name": "solc",
        "version": "0.8.7+commit.e28d00a7"
    },
    "functionHashes": {
        "ADMIN_ROLE()": "75b238fc",
        "DEFAULT_ADMIN_ROLE()": "a217fddf",
        "addUser(address)": "421b2d8b",
        "getBalance()": "12065fe0",
        "getInvestmentBalance(address)": "35469eac",
        "getIsBanned(address)": "f4d53a05",
        "getProposalsList()": "578178c0",
        "getRoleAdmin(bytes32)": "248a9ca3",
        "grantRole(bytes32,address)": "2f2ff15d",
        "hasRole(bytes32,address)": "91d14854",
        "pay()": "1b9265b8",
        "proposalById(uint256)": "02f9612b",
        "renounceRole(bytes32,address)": "36568abe",
        "revokeRole(bytes32,address)": "d547741f",
        "submitProposal(string[],string,uint256,address,uint256)": "fc86ac84",
        "supportsInterface(bytes4)": "01ffc9a7",
        "toggleIsBanned(address)": "497f4c56",
        "vote(uint256,uint256)": "b384abef"
    },
    "gasEstimates": {
        "creation": {
            "codeDepositCost": "1738200",
            "executionCost": "infinite",
            "totalCost": "infinite"
        },
        "external": {
            "ADMIN_ROLE()": "262",
            "DEFAULT_ADMIN_ROLE()": "217",
            "addUser(address)": "149887",
            "getBalance()": "251",
            "getInvestmentBalance(address)": "2604",
            "getIsBanned(address)": "2643",
            "getProposalsList()": "infinite",
            "getRoleAdmin(bytes32)": "2470",
            "grantRole(bytes32,address)": "infinite",
            "hasRole(bytes32,address)": "2740",
            "pay()": "26089",
            "proposalById(uint256)": "infinite",
            "renounceRole(bytes32,address)": "29084",
            "revokeRole(bytes32,address)": "infinite",
            "submitProposal(string[],string,uint256,address,uint256)": "infinite",
            "supportsInterface(bytes4)": "450",
            "toggleIsBanned(address)": "28560",
            "vote(uint256,uint256)": "infinite"
        },
        "internal": {
            "_deposit(address,uint256)": "infinite",
            "_proceedPaiement(uint256)": "infinite",
            "_toggleIsActive(address)": "infinite"
        }
    }
}